{
  "contractName": "AirDrop",
  "abi": [
    {
      "constant": true,
      "inputs": [
        {
          "name": "",
          "type": "address"
        }
      ],
      "name": "beneficiaries",
      "outputs": [
        {
          "name": "",
          "type": "uint256"
        }
      ],
      "payable": false,
      "stateMutability": "view",
      "type": "function"
    },
    {
      "constant": true,
      "inputs": [],
      "name": "owner",
      "outputs": [
        {
          "name": "",
          "type": "address"
        }
      ],
      "payable": false,
      "stateMutability": "view",
      "type": "function"
    },
    {
      "constant": false,
      "inputs": [
        {
          "name": "newOwner",
          "type": "address"
        }
      ],
      "name": "transferOwnership",
      "outputs": [],
      "payable": false,
      "stateMutability": "nonpayable",
      "type": "function"
    },
    {
      "constant": true,
      "inputs": [],
      "name": "token",
      "outputs": [
        {
          "name": "",
          "type": "address"
        }
      ],
      "payable": false,
      "stateMutability": "view",
      "type": "function"
    },
    {
      "inputs": [
        {
          "name": "_token",
          "type": "address"
        }
      ],
      "payable": false,
      "stateMutability": "nonpayable",
      "type": "constructor"
    },
    {
      "constant": false,
      "inputs": [
        {
          "name": "_tos",
          "type": "address[]"
        },
        {
          "name": "_tokenAmts",
          "type": "uint256[]"
        }
      ],
      "name": "doAirDrop",
      "outputs": [
        {
          "name": "success",
          "type": "bool"
        }
      ],
      "payable": false,
      "stateMutability": "nonpayable",
      "type": "function"
    }
  ],
  "bytecode": "0x608060405234801561001057600080fd5b506040516020806108ec83398101806040528101908080519060200190929190505050336000806101000a81548173ffffffffffffffffffffffffffffffffffffffff021916908373ffffffffffffffffffffffffffffffffffffffff16021790555060008173ffffffffffffffffffffffffffffffffffffffff161415151561009957600080fd5b80600160006101000a81548173ffffffffffffffffffffffffffffffffffffffff021916908373ffffffffffffffffffffffffffffffffffffffff16021790555050610802806100ea6000396000f30060806040526004361061006d576000357c0100000000000000000000000000000000000000000000000000000000900463ffffffff16806301567739146100725780631165a7d0146100c95780638da5cb5b1461018a578063f2fde38b146101e1578063fc0c546a14610224575b600080fd5b34801561007e57600080fd5b506100b3600480360381019080803573ffffffffffffffffffffffffffffffffffffffff16906020019092919050505061027b565b6040518082815260200191505060405180910390f35b3480156100d557600080fd5b506101706004803603810190808035906020019082018035906020019080806020026020016040519081016040528093929190818152602001838360200280828437820191505050505050919291929080359060200190820180359060200190808060200260200160405190810160405280939291908181526020018383602002808284378201915050505050509192919290505050610293565b604051808215151515815260200191505060405180910390f35b34801561019657600080fd5b5061019f6105c6565b604051808273ffffffffffffffffffffffffffffffffffffffff1673ffffffffffffffffffffffffffffffffffffffff16815260200191505060405180910390f35b3480156101ed57600080fd5b50610222600480360381019080803573ffffffffffffffffffffffffffffffffffffffff1690602001909291905050506105eb565b005b34801561023057600080fd5b506102396106c5565b604051808273ffffffffffffffffffffffffffffffffffffffff1673ffffffffffffffffffffffffffffffffffffffff16815260200191505060405180910390f35b60026020528060005260406000206000915090505481565b6000806000806000809054906101000a900473ffffffffffffffffffffffffffffffffffffffff1673ffffffffffffffffffffffffffffffffffffffff163373ffffffffffffffffffffffffffffffffffffffff161415156102f457600080fd5b60008651118015610306575084518651145b151561031157600080fd5b600091505b85518210156103a8576000868381518110151561032f57fe5b9060200190602002015173ffffffffffffffffffffffffffffffffffffffff161415801561037457506000858381518110151561036857fe5b90602001906020020151115b151561037f57600080fd5b848281518110151561038d57fe5b90602001906020020151830192508180600101925050610316565b600160009054906101000a900473ffffffffffffffffffffffffffffffffffffffff1673ffffffffffffffffffffffffffffffffffffffff166370a08231306040518263ffffffff167c0100000000000000000000000000000000000000000000000000000000028152600401808273ffffffffffffffffffffffffffffffffffffffff1673ffffffffffffffffffffffffffffffffffffffff168152602001915050602060405180830381600087803b15801561046557600080fd5b505af1158015610479573d6000803e3d6000fd5b505050506040513d602081101561048f57600080fd5b810190808051906020019092919050505090508281101515156104b157600080fd5b600091505b85518210156105b95761053a86838151811015156104d057fe5b9060200190602002015186848151811015156104e857fe5b90602001906020020151600160009054906101000a900473ffffffffffffffffffffffffffffffffffffffff1673ffffffffffffffffffffffffffffffffffffffff166106eb9092919063ffffffff16565b848281518110151561054857fe5b9060200190602002015160026000888581518110151561056457fe5b9060200190602002015173ffffffffffffffffffffffffffffffffffffffff1673ffffffffffffffffffffffffffffffffffffffff1681526020019081526020016000208190555081806001019250506104b6565b6001935050505092915050565b6000809054906101000a900473ffffffffffffffffffffffffffffffffffffffff1681565b6000809054906101000a900473ffffffffffffffffffffffffffffffffffffffff1673ffffffffffffffffffffffffffffffffffffffff163373ffffffffffffffffffffffffffffffffffffffff1614151561064657600080fd5b600073ffffffffffffffffffffffffffffffffffffffff168173ffffffffffffffffffffffffffffffffffffffff161415151561068257600080fd5b806000806101000a81548173ffffffffffffffffffffffffffffffffffffffff021916908373ffffffffffffffffffffffffffffffffffffffff16021790555050565b600160009054906101000a900473ffffffffffffffffffffffffffffffffffffffff1681565b8273ffffffffffffffffffffffffffffffffffffffff1663a9059cbb83836040518363ffffffff167c0100000000000000000000000000000000000000000000000000000000028152600401808373ffffffffffffffffffffffffffffffffffffffff1673ffffffffffffffffffffffffffffffffffffffff16815260200182815260200192505050602060405180830381600087803b15801561078e57600080fd5b505af11580156107a2573d6000803e3d6000fd5b505050506040513d60208110156107b857600080fd5b810190808051906020019092919050505015156107d157fe5b5050505600a165627a7a72305820f1d91705ae3d4a4ebf904bf91724a2ea6c445cb89bd7fa7e0a06a39b9d0647b10029",
  "source": "pragma solidity ^0.4.18;\n\nimport './ownership/Ownable.sol';\nimport \"./token/ERC20Basic.sol\";\nimport \"./token/SafeERC20.sol\";\nimport \"./math/SafeMath.sol\";\n\ncontract AirDrop is Ownable, SafeMath {\n    using SafeERC20 for ERC20Basic;\n\n    ERC20Basic public token;\n    mapping (address => uint256) public beneficiaries;\n    uint256 dropedTokens;\n\n    function AirDrop(address _token) {\n        require(_token != 0x00);\n        token = ERC20Basic(_token);\n    }\n\n    function doAirDrop(address[] _tos, uint256[] _tokenAmts) public onlyOwner returns (bool success) {\n        require(_tos.length > 0 && _tos.length == _tokenAmts.length);\n\n        uint256 reqedTokens;\n        for(uint i=0; i<_tos.length; i++) {\n            require(_tos[i] != 0x00 && _tokenAmts[i] > 0);\n//            require(beneficiaries[_tos[i]] == 0);\n            reqedTokens += _tokenAmts[i];\n        }\n\n        uint256 bal = token.balanceOf(address(this));\n        require(bal >= reqedTokens);\n\n        for(i=0; i<_tos.length; i++) {\n            token.safeTransfer(_tos[i], _tokenAmts[i]);\n            beneficiaries[_tos[i]] = _tokenAmts[i];\n        }\n        return true;\n    }\n}\n",
  "sourcePath": "/home/kysee/prj/mdx/contracts/AirDrop.sol",
  "compiler": {
    "name": "solc",
    "version": "0.4.23+commit.124ca40d.Emscripten.clang"
  },
  "schemaVersion": "2.0.0",
  "updatedAt": "2018-04-23T08:46:10.327Z"
}