{
  "contractName": "MDXCrowdSale",
  "abi": [
    {
      "constant": true,
      "inputs": [],
      "name": "maxTokenCap",
      "outputs": [
        {
          "name": "",
          "type": "uint256"
        }
      ],
      "payable": false,
      "stateMutability": "view",
      "type": "function"
    },
    {
      "constant": true,
      "inputs": [],
      "name": "initialized",
      "outputs": [
        {
          "name": "",
          "type": "bool"
        }
      ],
      "payable": false,
      "stateMutability": "view",
      "type": "function"
    },
    {
      "constant": true,
      "inputs": [],
      "name": "baseRate",
      "outputs": [
        {
          "name": "",
          "type": "uint256"
        }
      ],
      "payable": false,
      "stateMutability": "view",
      "type": "function"
    },
    {
      "constant": true,
      "inputs": [],
      "name": "tokenRaised",
      "outputs": [
        {
          "name": "",
          "type": "uint256"
        }
      ],
      "payable": false,
      "stateMutability": "view",
      "type": "function"
    },
    {
      "constant": false,
      "inputs": [],
      "name": "unpause",
      "outputs": [],
      "payable": false,
      "stateMutability": "nonpayable",
      "type": "function"
    },
    {
      "constant": true,
      "inputs": [],
      "name": "paused",
      "outputs": [
        {
          "name": "",
          "type": "bool"
        }
      ],
      "payable": false,
      "stateMutability": "view",
      "type": "function"
    },
    {
      "constant": true,
      "inputs": [],
      "name": "teamLocker",
      "outputs": [
        {
          "name": "",
          "type": "address"
        }
      ],
      "payable": false,
      "stateMutability": "view",
      "type": "function"
    },
    {
      "constant": false,
      "inputs": [],
      "name": "pause",
      "outputs": [],
      "payable": false,
      "stateMutability": "nonpayable",
      "type": "function"
    },
    {
      "constant": true,
      "inputs": [],
      "name": "isFinalized",
      "outputs": [
        {
          "name": "",
          "type": "bool"
        }
      ],
      "payable": false,
      "stateMutability": "view",
      "type": "function"
    },
    {
      "constant": true,
      "inputs": [],
      "name": "owner",
      "outputs": [
        {
          "name": "",
          "type": "address"
        }
      ],
      "payable": false,
      "stateMutability": "view",
      "type": "function"
    },
    {
      "constant": true,
      "inputs": [],
      "name": "MAX_PERIOD_COUNT",
      "outputs": [
        {
          "name": "",
          "type": "uint8"
        }
      ],
      "payable": false,
      "stateMutability": "view",
      "type": "function"
    },
    {
      "constant": true,
      "inputs": [],
      "name": "kyc",
      "outputs": [
        {
          "name": "",
          "type": "address"
        }
      ],
      "payable": false,
      "stateMutability": "view",
      "type": "function"
    },
    {
      "constant": true,
      "inputs": [],
      "name": "MDXController",
      "outputs": [
        {
          "name": "",
          "type": "address"
        }
      ],
      "payable": false,
      "stateMutability": "view",
      "type": "function"
    },
    {
      "constant": true,
      "inputs": [],
      "name": "minTokenCap",
      "outputs": [
        {
          "name": "",
          "type": "uint256"
        }
      ],
      "payable": false,
      "stateMutability": "view",
      "type": "function"
    },
    {
      "constant": true,
      "inputs": [],
      "name": "refundCompleted",
      "outputs": [
        {
          "name": "",
          "type": "uint256"
        }
      ],
      "payable": false,
      "stateMutability": "view",
      "type": "function"
    },
    {
      "constant": true,
      "inputs": [
        {
          "name": "",
          "type": "address"
        }
      ],
      "name": "beneficiaryFunded",
      "outputs": [
        {
          "name": "",
          "type": "uint256"
        }
      ],
      "payable": false,
      "stateMutability": "view",
      "type": "function"
    },
    {
      "constant": true,
      "inputs": [],
      "name": "airDrop",
      "outputs": [
        {
          "name": "",
          "type": "address"
        }
      ],
      "payable": false,
      "stateMutability": "view",
      "type": "function"
    },
    {
      "constant": true,
      "inputs": [
        {
          "name": "",
          "type": "uint256"
        }
      ],
      "name": "periods",
      "outputs": [
        {
          "name": "startTime",
          "type": "uint256"
        },
        {
          "name": "endTime",
          "type": "uint256"
        },
        {
          "name": "bonus",
          "type": "uint256"
        }
      ],
      "payable": false,
      "stateMutability": "view",
      "type": "function"
    },
    {
      "constant": false,
      "inputs": [
        {
          "name": "newOwner",
          "type": "address"
        }
      ],
      "name": "transferOwnership",
      "outputs": [],
      "payable": false,
      "stateMutability": "nonpayable",
      "type": "function"
    },
    {
      "constant": true,
      "inputs": [],
      "name": "vault",
      "outputs": [
        {
          "name": "",
          "type": "address"
        }
      ],
      "payable": false,
      "stateMutability": "view",
      "type": "function"
    },
    {
      "constant": true,
      "inputs": [],
      "name": "token",
      "outputs": [
        {
          "name": "",
          "type": "address"
        }
      ],
      "payable": false,
      "stateMutability": "view",
      "type": "function"
    },
    {
      "constant": true,
      "inputs": [],
      "name": "finalizedTime",
      "outputs": [
        {
          "name": "",
          "type": "uint256"
        }
      ],
      "payable": false,
      "stateMutability": "view",
      "type": "function"
    },
    {
      "payable": true,
      "stateMutability": "payable",
      "type": "fallback"
    },
    {
      "anonymous": false,
      "inputs": [
        {
          "indexed": true,
          "name": "_investor",
          "type": "address"
        },
        {
          "indexed": true,
          "name": "_beneficiary",
          "type": "address"
        },
        {
          "indexed": false,
          "name": "_toFund",
          "type": "uint256"
        },
        {
          "indexed": false,
          "name": "_tokens",
          "type": "uint256"
        }
      ],
      "name": "CrowdSaleTokenPurchase",
      "type": "event"
    },
    {
      "anonymous": false,
      "inputs": [
        {
          "indexed": false,
          "name": "_startTime",
          "type": "uint256"
        },
        {
          "indexed": false,
          "name": "_endTime",
          "type": "uint256"
        },
        {
          "indexed": false,
          "name": "_bonus",
          "type": "uint256"
        }
      ],
      "name": "StartPeriod",
      "type": "event"
    },
    {
      "anonymous": false,
      "inputs": [],
      "name": "Finalized",
      "type": "event"
    },
    {
      "anonymous": false,
      "inputs": [
        {
          "indexed": false,
          "name": "_investor",
          "type": "address"
        }
      ],
      "name": "PushInvestorList",
      "type": "event"
    },
    {
      "anonymous": false,
      "inputs": [
        {
          "indexed": false,
          "name": "_numToRefund",
          "type": "uint256"
        }
      ],
      "name": "RefundAll",
      "type": "event"
    },
    {
      "anonymous": false,
      "inputs": [
        {
          "indexed": false,
          "name": "_claimToken",
          "type": "address"
        },
        {
          "indexed": false,
          "name": "owner",
          "type": "address"
        },
        {
          "indexed": false,
          "name": "balance",
          "type": "uint256"
        }
      ],
      "name": "ClaimedTokens",
      "type": "event"
    },
    {
      "anonymous": false,
      "inputs": [],
      "name": "Initialize",
      "type": "event"
    },
    {
      "anonymous": false,
      "inputs": [],
      "name": "Pause",
      "type": "event"
    },
    {
      "anonymous": false,
      "inputs": [],
      "name": "Unpause",
      "type": "event"
    },
    {
      "constant": false,
      "inputs": [
        {
          "name": "_kyc",
          "type": "address"
        },
        {
          "name": "_token",
          "type": "address"
        },
        {
          "name": "_vault",
          "type": "address"
        },
        {
          "name": "_airDrop",
          "type": "address"
        },
        {
          "name": "_teamLocker",
          "type": "address"
        },
        {
          "name": "_bountyAddresses",
          "type": "address[]"
        },
        {
          "name": "_advisorAddresses",
          "type": "address[]"
        },
        {
          "name": "_tokenController",
          "type": "address"
        },
        {
          "name": "_maxTokenCap",
          "type": "uint256"
        },
        {
          "name": "_minTokenCap",
          "type": "uint256"
        },
        {
          "name": "_baseRate",
          "type": "uint256"
        }
      ],
      "name": "initialize",
      "outputs": [],
      "payable": false,
      "stateMutability": "nonpayable",
      "type": "function"
    },
    {
      "constant": false,
      "inputs": [
        {
          "name": "beneficiary",
          "type": "address"
        }
      ],
      "name": "buy",
      "outputs": [],
      "payable": true,
      "stateMutability": "payable",
      "type": "function"
    },
    {
      "constant": false,
      "inputs": [],
      "name": "getBountyCount",
      "outputs": [
        {
          "name": "",
          "type": "uint256"
        }
      ],
      "payable": false,
      "stateMutability": "nonpayable",
      "type": "function"
    },
    {
      "constant": false,
      "inputs": [],
      "name": "getAdvisorCount",
      "outputs": [
        {
          "name": "",
          "type": "uint256"
        }
      ],
      "payable": false,
      "stateMutability": "nonpayable",
      "type": "function"
    },
    {
      "constant": true,
      "inputs": [],
      "name": "minReached",
      "outputs": [
        {
          "name": "",
          "type": "bool"
        }
      ],
      "payable": false,
      "stateMutability": "view",
      "type": "function"
    },
    {
      "constant": true,
      "inputs": [],
      "name": "maxReached",
      "outputs": [
        {
          "name": "",
          "type": "bool"
        }
      ],
      "payable": false,
      "stateMutability": "view",
      "type": "function"
    },
    {
      "constant": true,
      "inputs": [],
      "name": "getPeriodBonus",
      "outputs": [
        {
          "name": "",
          "type": "uint256"
        }
      ],
      "payable": false,
      "stateMutability": "view",
      "type": "function"
    },
    {
      "constant": false,
      "inputs": [
        {
          "name": "_startTime",
          "type": "uint256"
        },
        {
          "name": "_endTime",
          "type": "uint256"
        }
      ],
      "name": "startPeriod",
      "outputs": [
        {
          "name": "",
          "type": "bool"
        }
      ],
      "payable": false,
      "stateMutability": "nonpayable",
      "type": "function"
    },
    {
      "constant": true,
      "inputs": [],
      "name": "periodCount",
      "outputs": [
        {
          "name": "",
          "type": "uint256"
        }
      ],
      "payable": false,
      "stateMutability": "view",
      "type": "function"
    },
    {
      "constant": false,
      "inputs": [],
      "name": "onSale",
      "outputs": [
        {
          "name": "",
          "type": "bool"
        }
      ],
      "payable": false,
      "stateMutability": "nonpayable",
      "type": "function"
    },
    {
      "constant": false,
      "inputs": [],
      "name": "finalize",
      "outputs": [],
      "payable": false,
      "stateMutability": "nonpayable",
      "type": "function"
    },
    {
      "constant": false,
      "inputs": [
        {
          "name": "numToRefund",
          "type": "uint256"
        }
      ],
      "name": "refundAll",
      "outputs": [],
      "payable": false,
      "stateMutability": "nonpayable",
      "type": "function"
    },
    {
      "constant": false,
      "inputs": [
        {
          "name": "investor",
          "type": "address"
        }
      ],
      "name": "claimRefund",
      "outputs": [
        {
          "name": "",
          "type": "bool"
        }
      ],
      "payable": false,
      "stateMutability": "nonpayable",
      "type": "function"
    },
    {
      "constant": false,
      "inputs": [
        {
          "name": "_claimToken",
          "type": "address"
        }
      ],
      "name": "claimTokens",
      "outputs": [],
      "payable": false,
      "stateMutability": "nonpayable",
      "type": "function"
    }
  ],
  "bytecode": "0x608060405260008060146101000a81548160ff021916908315150217905550336000806101000a81548173ffffffffffffffffffffffffffffffffffffffff021916908373ffffffffffffffffffffffffffffffffffffffff1602179055506134638061006d6000396000f3006080604052600436106101c2576000357c0100000000000000000000000000000000000000000000000000000000900463ffffffff16806306641f7e146101cd5780630f96dd39146101f8578063107d1d5514610223578063158ef93e14610272578063169bb6f4146102a15780631f68f20a146102cc57806326a21575146102f7578063326687b9146103225780633f4ba83a146103515780634bb278f3146103685780635c975abb1461037f5780637f197519146103ae57806380bc99cb146103d95780638456cb59146104305780638d4e4083146104475780638da5cb5b146104765780638e6a2afa146104cd57806390135fec146104fe57806390d6b45f1461052d5780639666404514610584578063a2124ccc146105db578063a6ca322b14610606578063a743fa5014610631578063af6f964d14610688578063bffa55d5146106b7578063c4e3223f14610712578063ca5d088014610899578063df8de3e7146108f0578063e382c3e614610933578063e9fee16f1461095e578063ea4a11041461098b578063f088d547146109da578063f2fde38b14610a10578063fbfa77cf14610a53578063fc0c546a14610aaa578063fe67a18914610b01575b6101cb33610b2c565b005b3480156101d957600080fd5b506101e261100c565b6040518082815260200191505060405180910390f35b34801561020457600080fd5b5061020d611019565b6040518082815260200191505060405180910390f35b34801561022f57600080fd5b50610258600480360381019080803590602001909291908035906020019092919050505061101f565b604051808215151515815260200191505060405180910390f35b34801561027e57600080fd5b50610287611255565b604051808215151515815260200191505060405180910390f35b3480156102ad57600080fd5b506102b6611268565b6040518082815260200191505060405180910390f35b3480156102d857600080fd5b506102e1611275565b6040518082815260200191505060405180910390f35b34801561030357600080fd5b5061030c61127b565b6040518082815260200191505060405180910390f35b34801561032e57600080fd5b50610337611281565b604051808215151515815260200191505060405180910390f35b34801561035d57600080fd5b5061036661130a565b005b34801561037457600080fd5b5061037d6113c8565b005b34801561038b57600080fd5b506103946114ba565b604051808215151515815260200191505060405180910390f35b3480156103ba57600080fd5b506103c36114cd565b6040518082815260200191505060405180910390f35b3480156103e557600080fd5b506103ee6114da565b604051808273ffffffffffffffffffffffffffffffffffffffff1673ffffffffffffffffffffffffffffffffffffffff16815260200191505060405180910390f35b34801561043c57600080fd5b50610445611500565b005b34801561045357600080fd5b5061045c6115c0565b604051808215151515815260200191505060405180910390f35b34801561048257600080fd5b5061048b6115d3565b604051808273ffffffffffffffffffffffffffffffffffffffff1673ffffffffffffffffffffffffffffffffffffffff16815260200191505060405180910390f35b3480156104d957600080fd5b506104e26115f8565b604051808260ff1660ff16815260200191505060405180910390f35b34801561050a57600080fd5b506105136115fd565b604051808215151515815260200191505060405180910390f35b34801561053957600080fd5b5061054261160b565b604051808273ffffffffffffffffffffffffffffffffffffffff1673ffffffffffffffffffffffffffffffffffffffff16815260200191505060405180910390f35b34801561059057600080fd5b50610599611631565b604051808273ffffffffffffffffffffffffffffffffffffffff1673ffffffffffffffffffffffffffffffffffffffff16815260200191505060405180910390f35b3480156105e757600080fd5b506105f0611657565b6040518082815260200191505060405180910390f35b34801561061257600080fd5b5061061b61165d565b6040518082815260200191505060405180910390f35b34801561063d57600080fd5b50610672600480360381019080803573ffffffffffffffffffffffffffffffffffffffff169060200190929190505050611663565b6040518082815260200191505060405180910390f35b34801561069457600080fd5b5061069d61167b565b604051808215151515815260200191505060405180910390f35b3480156106c357600080fd5b506106f8600480360381019080803573ffffffffffffffffffffffffffffffffffffffff16906020019092919050505061168a565b604051808215151515815260200191505060405180910390f35b34801561071e57600080fd5b50610897600480360381019080803573ffffffffffffffffffffffffffffffffffffffff169060200190929190803573ffffffffffffffffffffffffffffffffffffffff169060200190929190803573ffffffffffffffffffffffffffffffffffffffff169060200190929190803573ffffffffffffffffffffffffffffffffffffffff169060200190929190803573ffffffffffffffffffffffffffffffffffffffff1690602001909291908035906020019082018035906020019080806020026020016040519081016040528093929190818152602001838360200280828437820191505050505050919291929080359060200190820180359060200190808060200260200160405190810160405280939291908181526020018383602002808284378201915050505050509192919290803573ffffffffffffffffffffffffffffffffffffffff1690602001909291908035906020019092919080359060200190929190803590602001909291905050506117ba565b005b3480156108a557600080fd5b506108ae611beb565b604051808273ffffffffffffffffffffffffffffffffffffffff1673ffffffffffffffffffffffffffffffffffffffff16815260200191505060405180910390f35b3480156108fc57600080fd5b50610931600480360381019080803573ffffffffffffffffffffffffffffffffffffffff169060200190929190505050611c11565b005b34801561093f57600080fd5b5061094861217d565b6040518082815260200191505060405180910390f35b34801561096a57600080fd5b5061098960048036038101908080359060200190929190505050612238565b005b34801561099757600080fd5b506109b660048036038101908080359060200190929190505050612481565b60405180848152602001838152602001828152602001935050505060405180910390f35b610a0e600480360381019080803573ffffffffffffffffffffffffffffffffffffffff169060200190929190505050610b2c565b005b348015610a1c57600080fd5b50610a51600480360381019080803573ffffffffffffffffffffffffffffffffffffffff1690602001909291905050506124ba565b005b348015610a5f57600080fd5b50610a68612594565b604051808273ffffffffffffffffffffffffffffffffffffffff1673ffffffffffffffffffffffffffffffffffffffff16815260200191505060405180910390f35b348015610ab657600080fd5b50610abf6125ba565b604051808273ffffffffffffffffffffffffffffffffffffffff1673ffffffffffffffffffffffffffffffffffffffff16815260200191505060405180910390f35b348015610b0d57600080fd5b50610b166125e0565b6040518082815260200191505060405180910390f35b600080600080600080600060149054906101000a900460ff16151515610b5157600080fd5b60008773ffffffffffffffffffffffffffffffffffffffff1614151515610b7757600080fd5b610b7f611281565b1515610b8a57600080fd5b610b926125e6565b1515610b9d57600080fd5b601060149054906101000a900460ff16151515610bb957600080fd5b34955085945060009350610bcb61217d565b92506032831480610cd05750600160009054906101000a900473ffffffffffffffffffffffffffffffffffffffff1673ffffffffffffffffffffffffffffffffffffffff1663ad1def42886040518263ffffffff167c0100000000000000000000000000000000000000000000000000000000028152600401808273ffffffffffffffffffffffffffffffffffffffff1673ffffffffffffffffffffffffffffffffffffffff168152602001915050602060405180830381600087803b158015610c9457600080fd5b505af1158015610ca8573d6000803e3d6000fd5b505050506040513d6020811015610cbe57600080fd5b81019080805190602001909291905050505b1515610cdb57600080fd5b610d04610cfd610ced87600854612608565b610cf860648761263b565b612608565b6064612659565b9150610d12600a548361263b565b9050600b54811115610d6657610d2c600b54600a54612674565b9150610d57610d3c836064612608565b610d52600854610d4d60648861263b565b612608565b612659565b9450610d638686612674565b93505b600085111515610d7557600080fd5b858511151515610d8457600080fd5b60008410151515610d9457600080fd5b610d9d3361268d565b610da9600a548361263b565b600a81905550610df8600d60008973ffffffffffffffffffffffffffffffffffffffff1673ffffffffffffffffffffffffffffffffffffffff168152602001908152602001600020548661263b565b600d60008973ffffffffffffffffffffffffffffffffffffffff1673ffffffffffffffffffffffffffffffffffffffff16815260200190815260200160002081905550600260009054906101000a900473ffffffffffffffffffffffffffffffffffffffff1673ffffffffffffffffffffffffffffffffffffffff1663827f32c088846040518363ffffffff167c0100000000000000000000000000000000000000000000000000000000028152600401808373ffffffffffffffffffffffffffffffffffffffff1673ffffffffffffffffffffffffffffffffffffffff16815260200182815260200192505050602060405180830381600087803b158015610f0057600080fd5b505af1158015610f14573d6000803e3d6000fd5b505050506040513d6020811015610f2a57600080fd5b8101908080519060200190929190505050506000841115610f8d573373ffffffffffffffffffffffffffffffffffffffff166108fc859081150290604051600060405180830381858888f19350505050158015610f8b573d6000803e3d6000fd5b505b610f9685612805565b8673ffffffffffffffffffffffffffffffffffffffff163373ffffffffffffffffffffffffffffffffffffffff167f33759ee1eaa9f87f4186d31caf548c4494b9cef9fa6a2805ef0efd615fb182ff8785604051808381526020018281526020019250505060405180910390a350505050505050565b6000600680549050905090565b600b5481565b6000611029613348565b6000809054906101000a900473ffffffffffffffffffffffffffffffffffffffff1673ffffffffffffffffffffffffffffffffffffffff163373ffffffffffffffffffffffffffffffffffffffff1614151561108457600080fd5b600860ff1660098054905010151561109b57600080fd5b83421080156110a957508284105b15156110b457600080fd5b60006009805490501415156111155762093a806110d18486612674565b111515156110de57600080fd5b8360096001600980549050038154811015156110f657fe5b90600052602060002090600302016001015410151561111457600080fd5b5b8381600001818152505082816020018181525050600060098054905014156111475760328160400181815250506111b0565b600160098054905014156111655760148160400181815250506111af565b6002600980549050141561118357600a8160400181815250506111ae565b600360098054905014156111a15760058160400181815250506111ad565b60008160400181815250505b5b5b5b600981908060018154018082558091505090600182039060005260206000209060030201600090919290919091506000820151816000015560208201518160010155604082015181600201555050507f1652a9d372dbc4e65f222c8c7545fd38bc190a6ee6139be8d59ae45e101320a98484836040015160405180848152602001838152602001828152602001935050505060405180910390a1600191505092915050565b601360009054906101000a900460ff1681565b6000600780549050905090565b60085481565b600a5481565b60008060008090505b60098054905081101561130257426009828154811015156112a757fe5b906000526020600020906003020160000154111580156112e757506009818154811015156112d157fe5b9060005260206000209060030201600101544211155b156112f55760019150611302565b808060010191505061128a565b819250505090565b6000809054906101000a900473ffffffffffffffffffffffffffffffffffffffff1673ffffffffffffffffffffffffffffffffffffffff163373ffffffffffffffffffffffffffffffffffffffff1614151561136557600080fd5b600060149054906101000a900460ff16151561138057600080fd5b60008060146101000a81548160ff0219169083151502179055507f7805862f689e2f13df9f062ff482ad3ad112aca9e0847911ed832e158c525b3360405160405180910390a1565b6000809054906101000a900473ffffffffffffffffffffffffffffffffffffffff1673ffffffffffffffffffffffffffffffffffffffff163373ffffffffffffffffffffffffffffffffffffffff1614151561142357600080fd5b601060149054906101000a900460ff1615151561143f57600080fd5b611447611281565b158061145757506114566115fd565b5b151561146257600080fd5b426012819055506114716128de565b7f6823b073d48d6e3a7d385eeb601452d680e74bb46afe3255a7d778f3a9b1768160405160405180910390a16001601060146101000a81548160ff021916908315150217905550565b600060149054906101000a900460ff1681565b6000600980549050905090565b600560009054906101000a900473ffffffffffffffffffffffffffffffffffffffff1681565b6000809054906101000a900473ffffffffffffffffffffffffffffffffffffffff1673ffffffffffffffffffffffffffffffffffffffff163373ffffffffffffffffffffffffffffffffffffffff1614151561155b57600080fd5b600060149054906101000a900460ff1615151561157757600080fd5b6001600060146101000a81548160ff0219169083151502179055507f6985a02210a168e66602d3235cb6db0e70f92b3ba4d376a33c0f3d9434bff62560405160405180910390a1565b601060149054906101000a900460ff1681565b6000809054906101000a900473ffffffffffffffffffffffffffffffffffffffff1681565b600881565b6000600b54600a5414905090565b600160009054906101000a900473ffffffffffffffffffffffffffffffffffffffff1681565b601060009054906101000a900473ffffffffffffffffffffffffffffffffffffffff1681565b600c5481565b60115481565b600d6020528060005260406000206000915090505481565b6000600c54600a541015905090565b6000601060149054906101000a900460ff1615156116a757600080fd5b6116af61167b565b1515156116bb57600080fd5b600360009054906101000a900473ffffffffffffffffffffffffffffffffffffffff1673ffffffffffffffffffffffffffffffffffffffff1663fa89401a836040518263ffffffff167c0100000000000000000000000000000000000000000000000000000000028152600401808273ffffffffffffffffffffffffffffffffffffffff1673ffffffffffffffffffffffffffffffffffffffff168152602001915050602060405180830381600087803b15801561177857600080fd5b505af115801561178c573d6000803e3d6000fd5b505050506040513d60208110156117a257600080fd5b81019080805190602001909291905050509050919050565b6000809054906101000a900473ffffffffffffffffffffffffffffffffffffffff1673ffffffffffffffffffffffffffffffffffffffff163373ffffffffffffffffffffffffffffffffffffffff1614151561181557600080fd5b601360009054906101000a900460ff1615151561183157600080fd5b60008b73ffffffffffffffffffffffffffffffffffffffff161415801561186f575060008a73ffffffffffffffffffffffffffffffffffffffff1614155b8015611892575060008973ffffffffffffffffffffffffffffffffffffffff1614155b151561189d57600080fd5b60008873ffffffffffffffffffffffffffffffffffffffff16141515156118c357600080fd5b60008773ffffffffffffffffffffffffffffffffffffffff16141515156118e957600080fd5b60008660008151811015156118fa57fe5b9060200190602002015173ffffffffffffffffffffffffffffffffffffffff1614158015611929575060008651115b151561193457600080fd5b600085600081518110151561194557fe5b9060200190602002015173ffffffffffffffffffffffffffffffffffffffff1614158015611974575060008551115b151561197f57600080fd5b60008473ffffffffffffffffffffffffffffffffffffffff16141515156119a557600080fd5b8160001080156119b457508282105b15156119bf57600080fd5b6000811115156119ce57600080fd5b8a600160006101000a81548173ffffffffffffffffffffffffffffffffffffffff021916908373ffffffffffffffffffffffffffffffffffffffff16021790555089600260006101000a81548173ffffffffffffffffffffffffffffffffffffffff021916908373ffffffffffffffffffffffffffffffffffffffff16021790555088600360006101000a81548173ffffffffffffffffffffffffffffffffffffffff021916908373ffffffffffffffffffffffffffffffffffffffff16021790555087600460006101000a81548173ffffffffffffffffffffffffffffffffffffffff021916908373ffffffffffffffffffffffffffffffffffffffff16021790555086600560006101000a81548173ffffffffffffffffffffffffffffffffffffffff021916908373ffffffffffffffffffffffffffffffffffffffff1602179055508560069080519060200190611b2992919061336a565b508460079080519060200190611b4092919061336a565b5083601060006101000a81548173ffffffffffffffffffffffffffffffffffffffff021916908373ffffffffffffffffffffffffffffffffffffffff16021790555082600b8190555081600c81905550806008819055506001601360006101000a81548160ff0219169083151502179055507f80f860092ed8101278311dd6b10dda4920a40ea5dfcbacfe724e2accfaf63efc60405160405180910390a15050505050505050505050565b600460009054906101000a900473ffffffffffffffffffffffffffffffffffffffff1681565b6000806000809054906101000a900473ffffffffffffffffffffffffffffffffffffffff1673ffffffffffffffffffffffffffffffffffffffff163373ffffffffffffffffffffffffffffffffffffffff16141515611c6f57600080fd5b3073ffffffffffffffffffffffffffffffffffffffff16600260009054906101000a900473ffffffffffffffffffffffffffffffffffffffff1673ffffffffffffffffffffffffffffffffffffffff1663f77c47916040518163ffffffff167c0100000000000000000000000000000000000000000000000000000000028152600401602060405180830381600087803b158015611d0c57600080fd5b505af1158015611d20573d6000803e3d6000fd5b505050506040513d6020811015611d3657600080fd5b810190808051906020019092919050505073ffffffffffffffffffffffffffffffffffffffff161415611e3957600260009054906101000a900473ffffffffffffffffffffffffffffffffffffffff1673ffffffffffffffffffffffffffffffffffffffff1663df8de3e7846040518263ffffffff167c0100000000000000000000000000000000000000000000000000000000028152600401808273ffffffffffffffffffffffffffffffffffffffff1673ffffffffffffffffffffffffffffffffffffffff168152602001915050600060405180830381600087803b158015611e2057600080fd5b505af1158015611e34573d6000803e3d6000fd5b505050505b60008373ffffffffffffffffffffffffffffffffffffffff161415611edc576000809054906101000a900473ffffffffffffffffffffffffffffffffffffffff1673ffffffffffffffffffffffffffffffffffffffff166108fc3073ffffffffffffffffffffffffffffffffffffffff16319081150290604051600060405180830381858888f19350505050158015611ed6573d6000803e3d6000fd5b50612178565b8291508173ffffffffffffffffffffffffffffffffffffffff166370a08231306040518263ffffffff167c0100000000000000000000000000000000000000000000000000000000028152600401808273ffffffffffffffffffffffffffffffffffffffff1673ffffffffffffffffffffffffffffffffffffffff168152602001915050602060405180830381600087803b158015611f7a57600080fd5b505af1158015611f8e573d6000803e3d6000fd5b505050506040513d6020811015611fa457600080fd5b810190808051906020019092919050505090508173ffffffffffffffffffffffffffffffffffffffff1663a9059cbb6000809054906101000a900473ffffffffffffffffffffffffffffffffffffffff16836040518363ffffffff167c0100000000000000000000000000000000000000000000000000000000028152600401808373ffffffffffffffffffffffffffffffffffffffff1673ffffffffffffffffffffffffffffffffffffffff16815260200182815260200192505050602060405180830381600087803b15801561207b57600080fd5b505af115801561208f573d6000803e3d6000fd5b505050506040513d60208110156120a557600080fd5b8101908080519060200190929190505050507ff931edb47c50b4b4104c187b5814a9aef5f709e17e2ecf9617e860cacade929c836000809054906101000a900473ffffffffffffffffffffffffffffffffffffffff1683604051808473ffffffffffffffffffffffffffffffffffffffff1673ffffffffffffffffffffffffffffffffffffffff1681526020018373ffffffffffffffffffffffffffffffffffffffff1673ffffffffffffffffffffffffffffffffffffffff168152602001828152602001935050505060405180910390a15b505050565b600080600080600090505b60098054905081101561220357426009828154811015156121a557fe5b906000526020600020906003020160000154111580156121e557506009818154811015156121cf57fe5b9060005260206000209060030201600101544211155b156121f65760019250809150612203565b8080600101915050612188565b82151561220f57600080fd5b60098281548110151561221e57fe5b906000526020600020906003020160020154935050505090565b6000806000809054906101000a900473ffffffffffffffffffffffffffffffffffffffff1673ffffffffffffffffffffffffffffffffffffffff163373ffffffffffffffffffffffffffffffffffffffff1614151561229657600080fd5b601060149054906101000a900460ff1615156122b157600080fd5b6122b961167b565b1515156122c557600080fd5b6000831115156122d457600080fd5b82601154019150600e805490508211156122f157600e8054905091505b60115490505b8181101561243e57600360009054906101000a900473ffffffffffffffffffffffffffffffffffffffff1673ffffffffffffffffffffffffffffffffffffffff1663fa89401a600e8381548110151561234c57fe5b9060005260206000200160009054906101000a900473ffffffffffffffffffffffffffffffffffffffff166040518263ffffffff167c0100000000000000000000000000000000000000000000000000000000028152600401808273ffffffffffffffffffffffffffffffffffffffff1673ffffffffffffffffffffffffffffffffffffffff168152602001915050602060405180830381600087803b1580156123f557600080fd5b505af1158015612409573d6000803e3d6000fd5b505050506040513d602081101561241f57600080fd5b81019080805190602001909291905050505080806001019150506122f7565b816011819055507fa70a53972d6afb0fc38bd683cd5955faa5fa55e6629744a51e7a2aaa0ecc4e04836040518082815260200191505060405180910390a1505050565b60098181548110151561249057fe5b90600052602060002090600302016000915090508060000154908060010154908060020154905083565b6000809054906101000a900473ffffffffffffffffffffffffffffffffffffffff1673ffffffffffffffffffffffffffffffffffffffff163373ffffffffffffffffffffffffffffffffffffffff1614151561251557600080fd5b600073ffffffffffffffffffffffffffffffffffffffff168173ffffffffffffffffffffffffffffffffffffffff161415151561255157600080fd5b806000806101000a81548173ffffffffffffffffffffffffffffffffffffffff021916908373ffffffffffffffffffffffffffffffffffffffff16021790555050565b600360009054906101000a900473ffffffffffffffffffffffffffffffffffffffff1681565b600260009054906101000a900473ffffffffffffffffffffffffffffffffffffffff1681565b60125481565b6000806000341415905080801561260257506126006115fd565b155b91505090565b60008082840290506000841480612629575082848281151561262657fe5b04145b151561263157fe5b8091505092915050565b600080828401905083811015151561264f57fe5b8091505092915050565b600080828481151561266757fe5b0490508091505092915050565b600082821115151561268257fe5b818303905092915050565b600f60008273ffffffffffffffffffffffffffffffffffffffff1673ffffffffffffffffffffffffffffffffffffffff16815260200190815260200160002060009054906101000a900460ff161515612802576001600f60008373ffffffffffffffffffffffffffffffffffffffff1673ffffffffffffffffffffffffffffffffffffffff16815260200190815260200160002060006101000a81548160ff021916908315150217905550600e8190806001815401808255809150509060018203906000526020600020016000909192909190916101000a81548173ffffffffffffffffffffffffffffffffffffffff021916908373ffffffffffffffffffffffffffffffffffffffff160217905550507f1095f211ec26cf9891a79b12717df016e5e06954063d8534ac589273c0ed2eb281604051808273ffffffffffffffffffffffffffffffffffffffff1673ffffffffffffffffffffffffffffffffffffffff16815260200191505060405180910390a15b50565b600360009054906101000a900473ffffffffffffffffffffffffffffffffffffffff1673ffffffffffffffffffffffffffffffffffffffff1663f340fa0182336040518363ffffffff167c0100000000000000000000000000000000000000000000000000000000028152600401808273ffffffffffffffffffffffffffffffffffffffff1673ffffffffffffffffffffffffffffffffffffffff1681526020019150506000604051808303818588803b1580156128c257600080fd5b505af11580156128d6573d6000803e3d6000fd5b505050505050565b60006128e861167b565b156129ab57600360009054906101000a900473ffffffffffffffffffffffffffffffffffffffff1673ffffffffffffffffffffffffffffffffffffffff166343d726d66040518163ffffffff167c0100000000000000000000000000000000000000000000000000000000028152600401600060405180830381600087803b15801561297357600080fd5b505af1158015612987573d6000803e3d6000fd5b50505050612998600b546006612659565b90506129a681828384612c06565b612a4a565b600360009054906101000a900473ffffffffffffffffffffffffffffffffffffffff1673ffffffffffffffffffffffffffffffffffffffff16638c52dc416040518163ffffffff167c0100000000000000000000000000000000000000000000000000000000028152600401600060405180830381600087803b158015612a3157600080fd5b505af1158015612a45573d6000803e3d6000fd5b505050505b600260009054906101000a900473ffffffffffffffffffffffffffffffffffffffff1673ffffffffffffffffffffffffffffffffffffffff1663a4d67d636040518163ffffffff167c0100000000000000000000000000000000000000000000000000000000028152600401602060405180830381600087803b158015612ad057600080fd5b505af1158015612ae4573d6000803e3d6000fd5b505050506040513d6020811015612afa57600080fd5b810190808051906020019092919050505050600260009054906101000a900473ffffffffffffffffffffffffffffffffffffffff1673ffffffffffffffffffffffffffffffffffffffff16633cebb823601060009054906101000a900473ffffffffffffffffffffffffffffffffffffffff166040518263ffffffff167c0100000000000000000000000000000000000000000000000000000000028152600401808273ffffffffffffffffffffffffffffffffffffffff1673ffffffffffffffffffffffffffffffffffffffff168152602001915050600060405180830381600087803b158015612beb57600080fd5b505af1158015612bff573d6000803e3d6000fd5b5050505050565b60008060066000815481101515612c1957fe5b9060005260206000200160009054906101000a900473ffffffffffffffffffffffffffffffffffffffff1673ffffffffffffffffffffffffffffffffffffffff1614158015612c6d57506000600680549050115b1515612c7857600080fd5b600060076000815481101515612c8a57fe5b9060005260206000200160009054906101000a900473ffffffffffffffffffffffffffffffffffffffff1673ffffffffffffffffffffffffffffffffffffffff1614158015612cde57506000600780549050115b1515612ce957600080fd5b6000600560009054906101000a900473ffffffffffffffffffffffffffffffffffffffff1673ffffffffffffffffffffffffffffffffffffffff1614151515612d3157600080fd5b6000600460009054906101000a900473ffffffffffffffffffffffffffffffffffffffff1673ffffffffffffffffffffffffffffffffffffffff1614151515612d7957600080fd5b600090505b600680549050811015612f3a576000600682815481101515612d9c57fe5b9060005260206000200160009054906101000a900473ffffffffffffffffffffffffffffffffffffffff1673ffffffffffffffffffffffffffffffffffffffff16141515612f2d57600260009054906101000a900473ffffffffffffffffffffffffffffffffffffffff1673ffffffffffffffffffffffffffffffffffffffff1663827f32c0600683815481101515612e3157fe5b9060005260206000200160009054906101000a900473ffffffffffffffffffffffffffffffffffffffff16612e6b88600680549050612659565b6040518363ffffffff167c0100000000000000000000000000000000000000000000000000000000028152600401808373ffffffffffffffffffffffffffffffffffffffff1673ffffffffffffffffffffffffffffffffffffffff16815260200182815260200192505050602060405180830381600087803b158015612ef057600080fd5b505af1158015612f04573d6000803e3d6000fd5b505050506040513d6020811015612f1a57600080fd5b8101908080519060200190929190505050505b8080600101915050612d7e565b600090505b6007805490508110156130fb576000600782815481101515612f5d57fe5b9060005260206000200160009054906101000a900473ffffffffffffffffffffffffffffffffffffffff1673ffffffffffffffffffffffffffffffffffffffff161415156130ee57600260009054906101000a900473ffffffffffffffffffffffffffffffffffffffff1673ffffffffffffffffffffffffffffffffffffffff1663827f32c0600783815481101515612ff257fe5b9060005260206000200160009054906101000a900473ffffffffffffffffffffffffffffffffffffffff1661302c87600780549050612659565b6040518363ffffffff167c0100000000000000000000000000000000000000000000000000000000028152600401808373ffffffffffffffffffffffffffffffffffffffff1673ffffffffffffffffffffffffffffffffffffffff16815260200182815260200192505050602060405180830381600087803b1580156130b157600080fd5b505af11580156130c5573d6000803e3d6000fd5b505050506040513d60208110156130db57600080fd5b8101908080519060200190929190505050505b8080600101915050612f3f565b600260009054906101000a900473ffffffffffffffffffffffffffffffffffffffff1673ffffffffffffffffffffffffffffffffffffffff1663827f32c0600560009054906101000a900473ffffffffffffffffffffffffffffffffffffffff16856040518363ffffffff167c0100000000000000000000000000000000000000000000000000000000028152600401808373ffffffffffffffffffffffffffffffffffffffff1673ffffffffffffffffffffffffffffffffffffffff16815260200182815260200192505050602060405180830381600087803b1580156131e257600080fd5b505af11580156131f6573d6000803e3d6000fd5b505050506040513d602081101561320c57600080fd5b810190808051906020019092919050505050600260009054906101000a900473ffffffffffffffffffffffffffffffffffffffff1673ffffffffffffffffffffffffffffffffffffffff1663827f32c0600460009054906101000a900473ffffffffffffffffffffffffffffffffffffffff16846040518363ffffffff167c0100000000000000000000000000000000000000000000000000000000028152600401808373ffffffffffffffffffffffffffffffffffffffff1673ffffffffffffffffffffffffffffffffffffffff16815260200182815260200192505050602060405180830381600087803b15801561330557600080fd5b505af1158015613319573d6000803e3d6000fd5b505050506040513d602081101561332f57600080fd5b8101908080519060200190929190505050505050505050565b6060604051908101604052806000815260200160008152602001600081525090565b8280548282559060005260206000209081019282156133e3579160200282015b828111156133e25782518260006101000a81548173ffffffffffffffffffffffffffffffffffffffff021916908373ffffffffffffffffffffffffffffffffffffffff1602179055509160200191906001019061338a565b5b5090506133f091906133f4565b5090565b61343491905b8082111561343057600081816101000a81549073ffffffffffffffffffffffffffffffffffffffff0219169055506001016133fa565b5090565b905600a165627a7a723058201617a0f1ba314c9fc9ab239278f6a998270b0dc7dd0c0c087767756717408a4d0029",
  "source": "pragma solidity ^0.4.18;\n\nimport './kyc/KYC.sol';\nimport './MDX.sol';\nimport './vault/RefundVault.sol';\nimport './ownership/Ownable.sol';\nimport './math/SafeMath.sol';\nimport './lifecycle/Pausable.sol';\nimport './token/ERC20Basic.sol';\n\ncontract MDXCrowdSale is Ownable, SafeMath, Pausable {\n    KYC public kyc;\n    MDX public token;\n    RefundVault public vault;\n    address public airDrop;\n    address public teamLocker;\n    address[] bountyAddresses;\n    address[] advisorAddresses;\n\n    struct Period {\n        uint256 startTime;\n        uint256 endTime;\n        uint256 bonus; // used to calculate rate with bonus. ragne 0 ~ 15 (0% ~ 15%)\n    }\n\n    uint256 public baseRate; // 1 ETH = 1500 MDX\n\n    Period[] public periods;\n    uint8 constant public MAX_PERIOD_COUNT = 8;\n\n    uint256 public tokenRaised;\n    uint256 public maxTokenCap;\n    uint256 public minTokenCap;\n\n    mapping (address => uint256) public beneficiaryFunded;\n\n    address[] investorList;\n    mapping (address => bool) inInvestorList;\n\n    address public MDXController;\n\n    bool public isFinalized;\n    uint256 public refundCompleted;\n\n    uint256 public finalizedTime;\n    bool public initialized;\n\n\n    event CrowdSaleTokenPurchase(address indexed _investor, address indexed _beneficiary, uint256 _toFund, uint256 _tokens);\n    event StartPeriod(uint256 _startTime, uint256 _endTime, uint256 _bonus);\n    event Finalized();\n    event PushInvestorList(address _investor);\n    event RefundAll(uint256 _numToRefund);\n    event ClaimedTokens(address _claimToken, address owner, uint256 balance);\n    event Initialize();\n\n    function initialize (\n        address _kyc,\n        address _token,\n        address _vault,\n        address _airDrop,\n        address _teamLocker,\n        address[] _bountyAddresses,\n        address[] _advisorAddresses,\n        address _tokenController,\n        uint256 _maxTokenCap,\n        uint256 _minTokenCap,\n        uint256 _baseRate\n    ) onlyOwner {\n        require(!initialized);\n\n        require(_kyc != 0x00 && _token != 0x00 && _vault != 0x00);\n        require(_airDrop != 0x00);\n        require(_teamLocker != 0x00);\n        require(_bountyAddresses[0] != 0x00 && _bountyAddresses.length > 0);\n        require(_advisorAddresses[0] != 0x00 && _advisorAddresses.length > 0);\n        require(_tokenController != 0x00);\n        require(0 < _minTokenCap && _minTokenCap < _maxTokenCap);\n        require(_baseRate > 0);\n\n        kyc = KYC(_kyc);\n        token = MDX(_token);\n        vault = RefundVault(_vault);\n\n        airDrop = _airDrop;\n        teamLocker = _teamLocker;\n        bountyAddresses = _bountyAddresses;\n        advisorAddresses = _advisorAddresses;\n        \n        MDXController = _tokenController;\n\n        maxTokenCap = _maxTokenCap;\n        minTokenCap = _minTokenCap;\n\n        baseRate = _baseRate;\n\n        initialized = true;\n        Initialize();\n    }\n\n    function () public payable {\n        buy(msg.sender);\n    }\n\n    function buy(address beneficiary)\n    public\n    payable\n    whenNotPaused\n    {\n        // check validity\n        require(beneficiary != 0x00);\n        require(onSale());\n        require(validPurchase());\n        require(!isFinalized);\n\n        // calculate eth amount\n        uint256 weiAmount = msg.value;\n        uint256 toFund = weiAmount;\n        uint256 reFund = 0;\n\n        uint256 bonus = getPeriodBonus();\n\n        // private sale or registered address\n        require((bonus == 50) || kyc.registeredAddress(beneficiary));\n        \n        uint256 tokens = div(mul(mul(toFund, baseRate), add(100,bonus)), 100);\n        uint256 postTokenRaised = add(tokenRaised, tokens);\n        if (postTokenRaised > maxTokenCap) {\n            tokens = sub(maxTokenCap, tokenRaised);\n            toFund = div(mul(tokens,100), mul(baseRate, add(100,bonus)));\n            reFund = sub(weiAmount, toFund);\n        }\n\n        require(toFund > 0);\n        require(toFund <= weiAmount);\n        require(reFund >= 0);\n\n        pushInvestorList(msg.sender);\n\n        tokenRaised = add(tokenRaised, tokens);\n        beneficiaryFunded[beneficiary] = add(beneficiaryFunded[beneficiary], toFund);\n\n        token.generateTokens(beneficiary, tokens);\n\n        if (reFund > 0) {\n            msg.sender.transfer(reFund);\n        }\n\n        forwardFunds(toFund);\n        CrowdSaleTokenPurchase(msg.sender, beneficiary, toFund, tokens);\n    }\n\n    function getBountyCount() public returns(uint256) {\n        return bountyAddresses.length;\n    }\n    \n    function getAdvisorCount() public returns(uint256) {\n        return advisorAddresses.length;\n    }\n    \n    function pushInvestorList(address investor) internal {\n        if (!inInvestorList[investor]) {\n            inInvestorList[investor] = true;\n            investorList.push(investor);\n\n            PushInvestorList(investor);\n        }\n    }\n\n    function validPurchase() internal view returns (bool) {\n        bool nonZeroPurchase = msg.value != 0;\n        return nonZeroPurchase && !maxReached();\n    }\n\n    function forwardFunds(uint256 toFund) internal {\n        vault.deposit.value(toFund)(msg.sender);\n    }\n\n    /**\n     * @dev Checks whether minTokenCap is reached\n     * @return true if min ether cap is reaced\n     */\n    function minReached() public view returns (bool) {\n        return tokenRaised >= minTokenCap;\n    }\n    /**\n     * @dev Checks whether maxTokenCap is reached\n     * @return true if max ether cap is reaced\n     */\n    function maxReached() public view returns (bool) {\n        return tokenRaised == maxTokenCap;\n    }\n\n    function getPeriodBonus() public view returns (uint256) {\n        bool nowOnSale;\n        uint256 currentPeriod;\n\n        for (uint i = 0; i < periods.length; i++) {\n            if (periods[i].startTime <= now && now <= periods[i].endTime) {\n                nowOnSale = true;\n                currentPeriod = i;\n                break;\n            }\n        }\n\n        require(nowOnSale);\n        return periods[currentPeriod].bonus;\n    }\n\n    // /**\n    //  * @dev rate = baseRate * (100 + bonus) / 100\n    //  */\n    // function calculateRate(uint256 toFund) public view returns (uint256)  {\n    //     uint bonus = getPeriodBonus();\n\n    //     // bonus for eth amount\n    //     if (additionalBonusAmounts[0] <= toFund) {\n    //         bonus = add(bonus, 5); // 5% amount bonus for more than 300 ETH\n    //     }\n\n    //     if (additionalBonusAmounts[1] <= toFund) {\n    //         bonus = add(bonus, 5); // 10% amount bonus for more than 6000 ETH\n    //     }\n\n    //     if (additionalBonusAmounts[2] <= toFund) {\n    //         bonus = 25; // final 25% amount bonus for more than 8000 ETH\n    //     }\n\n    //     if (additionalBonusAmounts[3] <= toFund) {\n    //         bonus = 30; // final 30% amount bonus for more than 10000 ETH\n    //     }\n\n    //     return div(mul(baseRate, add(bonus, 100)), 100);\n    // }\n\n    function startPeriod(uint256 _startTime, uint256 _endTime) public onlyOwner returns (bool) {\n        require(periods.length < MAX_PERIOD_COUNT);\n        require(now < _startTime && _startTime < _endTime);\n\n        if (periods.length != 0) {\n            require(sub(_endTime, _startTime) <= 7 days);\n            require(periods[periods.length - 1].endTime < _startTime);\n        }\n\n        // 50% -> 20% -> 10% -> 5% -> 0%...\n        Period memory newPeriod;\n        newPeriod.startTime = _startTime;\n        newPeriod.endTime = _endTime;\n\n        if(periods.length == 0) { // Private Sale\n            newPeriod.bonus = 50;\n        }\n        else if(periods.length == 1) { // Pre Sale\n            newPeriod.bonus = 20;\n        }\n        else if(periods.length == 2) { // 1st Crowd Sale\n            newPeriod.bonus = 10;\n        }\n        else if(periods.length == 3) { // 2nd Crowd Sale\n            newPeriod.bonus = 5;\n        }\n        else {\n            newPeriod.bonus = 0;\n        }\n        \n        periods.push(newPeriod);\n        StartPeriod(_startTime, _endTime, newPeriod.bonus);\n        return true;\n    }\n\n\n    function periodCount() public view returns (uint256) {\n        return periods.length;\n    }\n    \n    function onSale() public returns (bool) {\n        bool nowOnSale;\n\n        for (uint i = 0; i < periods.length; i++) {\n            if (periods[i].startTime <= now && now <= periods[i].endTime) {\n                nowOnSale = true;\n                break;\n            }\n        }\n\n        return nowOnSale;\n    }\n    /**\n     * @dev should be called after crowdsale ends, to do\n     */\n    function finalize() onlyOwner {\n        require(!isFinalized);\n        require(!onSale() || maxReached());\n\n        finalizedTime = now;\n\n        finalization();\n        Finalized();\n\n        isFinalized = true;\n    }\n\n    /**\n     * @dev end token minting on finalization, mint tokens for dev team and reserve wallets\n     */\n    function finalization() internal {\n        if (minReached()) {\n            vault.close();\n\n            uint256 addedAmtForEach = div(maxTokenCap, 6); //125e24; // 12.5 10%\n\n            distributeToken(addedAmtForEach, addedAmtForEach, addedAmtForEach, addedAmtForEach);\n\n            //token.enableTransfers(true);\n\n        } else {\n            vault.enableRefunds();\n        }\n        token.finishGenerating();\n        token.changeController(MDXController);\n    }\n\n    function distributeToken(uint256 bountyAmount, uint256 advisorAmount, uint256 teamAmount, uint256 airDropAmount) internal {\n\n        require(bountyAddresses[0] != 0x00 && bountyAddresses.length > 0);\n        require(advisorAddresses[0] != 0x00 && advisorAddresses.length > 0);\n        require(teamLocker != 0x00);\n        require(airDrop != 0x00);\n\n        // for bounty\n        for(uint256 i=0; i < bountyAddresses.length;i++) {\n            if(bountyAddresses[i] != 0x00) {\n                token.generateTokens(bountyAddresses[i], div(bountyAmount, bountyAddresses.length));\n            }\n        }\n        \n        // for advisor\n        for(i=0; i < advisorAddresses.length;i++) {\n            if(advisorAddresses[i] != 0x00) {\n                token.generateTokens(advisorAddresses[i], div(advisorAmount, advisorAddresses.length));\n            }\n        }\n\n        // for team members\n        token.generateTokens(teamLocker, teamAmount);\n\n        // for air-dorp\n        token.generateTokens(airDrop, airDropAmount);\n    }\n\n    /**\n     * @dev refund a lot of investors at a time checking onlyOwner\n     * @param numToRefund uint256 The number of investors to refund\n     */\n    function refundAll(uint256 numToRefund) onlyOwner {\n        require(isFinalized);\n        require(!minReached());\n        require(numToRefund > 0);\n\n        uint256 limit = refundCompleted + numToRefund;\n\n        if (limit > investorList.length) {\n            limit = investorList.length;\n        }\n\n        for(uint256 i = refundCompleted; i < limit; i++) {\n            vault.refund(investorList[i]);\n        }\n\n        refundCompleted = limit;\n        RefundAll(numToRefund);\n    }\n\n    /**\n     * @dev if crowdsale is unsuccessful, investors can claim refunds here\n     * @param investor address The account to be refunded\n     */\n    function claimRefund(address investor) returns (bool) {\n        require(isFinalized);\n        require(!minReached());\n\n        return vault.refund(investor);\n    }\n\n    function claimTokens(address _claimToken) public onlyOwner {\n\n        if (token.controller() == address(this)) {\n            token.claimTokens(_claimToken);\n        }\n\n        if (_claimToken == 0x0) {\n            owner.transfer(this.balance);\n            return;\n        }\n\n        ERC20Basic claimToken = ERC20Basic(_claimToken);\n        uint256 balance = claimToken.balanceOf(this);\n        claimToken.transfer(owner, balance);\n\n        ClaimedTokens(_claimToken, owner, balance);\n    }\n}\n",
  "sourcePath": "/home/kysee/prj/mdx/contracts/MDXCrowdSale.sol",
  "compiler": {
    "name": "solc",
    "version": "0.4.23+commit.124ca40d.Emscripten.clang"
  },
  "schemaVersion": "2.0.0",
  "updatedAt": "2018-04-23T08:46:10.378Z"
}