{
  "contractName": "RefundVault",
  "abi": [
    {
      "constant": true,
      "inputs": [],
      "name": "owner",
      "outputs": [
        {
          "name": "",
          "type": "address"
        }
      ],
      "payable": false,
      "stateMutability": "view",
      "type": "function"
    },
    {
      "constant": true,
      "inputs": [
        {
          "name": "",
          "type": "uint256"
        }
      ],
      "name": "reserveWallet",
      "outputs": [
        {
          "name": "",
          "type": "address"
        }
      ],
      "payable": false,
      "stateMutability": "view",
      "type": "function"
    },
    {
      "constant": true,
      "inputs": [
        {
          "name": "",
          "type": "address"
        }
      ],
      "name": "refunded",
      "outputs": [
        {
          "name": "",
          "type": "uint256"
        }
      ],
      "payable": false,
      "stateMutability": "view",
      "type": "function"
    },
    {
      "constant": true,
      "inputs": [],
      "name": "state",
      "outputs": [
        {
          "name": "",
          "type": "uint8"
        }
      ],
      "payable": false,
      "stateMutability": "view",
      "type": "function"
    },
    {
      "constant": true,
      "inputs": [
        {
          "name": "",
          "type": "address"
        }
      ],
      "name": "deposited",
      "outputs": [
        {
          "name": "",
          "type": "uint256"
        }
      ],
      "payable": false,
      "stateMutability": "view",
      "type": "function"
    },
    {
      "constant": false,
      "inputs": [
        {
          "name": "newOwner",
          "type": "address"
        }
      ],
      "name": "transferOwnership",
      "outputs": [],
      "payable": false,
      "stateMutability": "nonpayable",
      "type": "function"
    },
    {
      "inputs": [
        {
          "name": "_reserveWallet",
          "type": "address[]"
        }
      ],
      "payable": false,
      "stateMutability": "nonpayable",
      "type": "constructor"
    },
    {
      "anonymous": false,
      "inputs": [],
      "name": "Closed",
      "type": "event"
    },
    {
      "anonymous": false,
      "inputs": [],
      "name": "RefundsEnabled",
      "type": "event"
    },
    {
      "anonymous": false,
      "inputs": [
        {
          "indexed": true,
          "name": "beneficiary",
          "type": "address"
        },
        {
          "indexed": false,
          "name": "weiAmount",
          "type": "uint256"
        }
      ],
      "name": "Refunded",
      "type": "event"
    },
    {
      "anonymous": false,
      "inputs": [
        {
          "indexed": false,
          "name": "_to",
          "type": "address"
        },
        {
          "indexed": false,
          "name": "_value",
          "type": "uint256"
        }
      ],
      "name": "Transferred",
      "type": "event"
    },
    {
      "constant": false,
      "inputs": [
        {
          "name": "investor",
          "type": "address"
        }
      ],
      "name": "deposit",
      "outputs": [],
      "payable": true,
      "stateMutability": "payable",
      "type": "function"
    },
    {
      "constant": false,
      "inputs": [],
      "name": "close",
      "outputs": [],
      "payable": false,
      "stateMutability": "nonpayable",
      "type": "function"
    },
    {
      "constant": false,
      "inputs": [],
      "name": "enableRefunds",
      "outputs": [],
      "payable": false,
      "stateMutability": "nonpayable",
      "type": "function"
    },
    {
      "constant": false,
      "inputs": [
        {
          "name": "investor",
          "type": "address"
        }
      ],
      "name": "refund",
      "outputs": [
        {
          "name": "",
          "type": "bool"
        }
      ],
      "payable": false,
      "stateMutability": "nonpayable",
      "type": "function"
    }
  ],
  "bytecode": "0x608060405234801561001057600080fd5b50604051610d1d380380610d1d83398101806040528101908080518201929190505050336000806101000a81548173ffffffffffffffffffffffffffffffffffffffff021916908373ffffffffffffffffffffffffffffffffffffffff1602179055506000600360006101000a81548160ff0219169083600281111561009257fe5b021790555080600490805190602001906100ad9291906100b4565b5050610181565b82805482825590600052602060002090810192821561012d579160200282015b8281111561012c5782518260006101000a81548173ffffffffffffffffffffffffffffffffffffffff021916908373ffffffffffffffffffffffffffffffffffffffff160217905550916020019190600101906100d4565b5b50905061013a919061013e565b5090565b61017e91905b8082111561017a57600081816101000a81549073ffffffffffffffffffffffffffffffffffffffff021916905550600101610144565b5090565b90565b610b8d806101906000396000f3006080604052600436106100a4576000357c0100000000000000000000000000000000000000000000000000000000900463ffffffff16806343d726d6146100a95780638c52dc41146100c05780638da5cb5b146100d7578063a42ec1bc1461012e578063c033a4901461019b578063c19d93fb146101f2578063cb13cddb1461022b578063f2fde38b14610282578063f340fa01146102c5578063fa89401a146102fb575b600080fd5b3480156100b557600080fd5b506100be610356565b005b3480156100cc57600080fd5b506100d56105b6565b005b3480156100e357600080fd5b506100ec610697565b604051808273ffffffffffffffffffffffffffffffffffffffff1673ffffffffffffffffffffffffffffffffffffffff16815260200191505060405180910390f35b34801561013a57600080fd5b50610159600480360381019080803590602001909291905050506106bc565b604051808273ffffffffffffffffffffffffffffffffffffffff1673ffffffffffffffffffffffffffffffffffffffff16815260200191505060405180910390f35b3480156101a757600080fd5b506101dc600480360381019080803573ffffffffffffffffffffffffffffffffffffffff1690602001909291905050506106fa565b6040518082815260200191505060405180910390f35b3480156101fe57600080fd5b50610207610712565b6040518082600281111561021757fe5b60ff16815260200191505060405180910390f35b34801561023757600080fd5b5061026c600480360381019080803573ffffffffffffffffffffffffffffffffffffffff169060200190929190505050610725565b6040518082815260200191505060405180910390f35b34801561028e57600080fd5b506102c3600480360381019080803573ffffffffffffffffffffffffffffffffffffffff16906020019092919050505061073d565b005b6102f9600480360381019080803573ffffffffffffffffffffffffffffffffffffffff169060200190929190505050610817565b005b34801561030757600080fd5b5061033c600480360381019080803573ffffffffffffffffffffffffffffffffffffffff169060200190929190505050610935565b604051808215151515815260200191505060405180910390f35b60008060008060009054906101000a900473ffffffffffffffffffffffffffffffffffffffff1673ffffffffffffffffffffffffffffffffffffffff163373ffffffffffffffffffffffffffffffffffffffff161415156103b657600080fd5b600060028111156103c357fe5b600360009054906101000a900460ff1660028111156103de57fe5b1415156103ea57600080fd5b6002600360006101000a81548160ff0219169083600281111561040957fe5b02179055503073ffffffffffffffffffffffffffffffffffffffff1631925061043783600480549050610b28565b9150600090505b6004805490508160ff1610156105855760048160ff1681548110151561046057fe5b9060005260206000200160009054906101000a900473ffffffffffffffffffffffffffffffffffffffff1673ffffffffffffffffffffffffffffffffffffffff166108fc839081150290604051600060405180830381858888f193505050501580156104d0573d6000803e3d6000fd5b507fe6d858f14d755446648a6e0c8ab8b5a0f58ccc7920d4c910b0454e4dcd869af060048260ff1681548110151561050457fe5b9060005260206000200160009054906101000a900473ffffffffffffffffffffffffffffffffffffffff1683604051808373ffffffffffffffffffffffffffffffffffffffff1673ffffffffffffffffffffffffffffffffffffffff1681526020018281526020019250505060405180910390a1808060010191505061043e565b7f1cdde67b72a90f19919ac732a437ac2f7a10fc128d28c2a6e525d89ce5cd9d3a60405160405180910390a1505050565b6000809054906101000a900473ffffffffffffffffffffffffffffffffffffffff1673ffffffffffffffffffffffffffffffffffffffff163373ffffffffffffffffffffffffffffffffffffffff1614151561061157600080fd5b6000600281111561061e57fe5b600360009054906101000a900460ff16600281111561063957fe5b14151561064557600080fd5b6001600360006101000a81548160ff0219169083600281111561066457fe5b02179055507f599d8e5a83cffb867d051598c4d70e805d59802d8081c1c7d6dffc5b6aca2b8960405160405180910390a1565b6000809054906101000a900473ffffffffffffffffffffffffffffffffffffffff1681565b6004818154811015156106cb57fe5b906000526020600020016000915054906101000a900473ffffffffffffffffffffffffffffffffffffffff1681565b60026020528060005260406000206000915090505481565b600360009054906101000a900460ff1681565b60016020528060005260406000206000915090505481565b6000809054906101000a900473ffffffffffffffffffffffffffffffffffffffff1673ffffffffffffffffffffffffffffffffffffffff163373ffffffffffffffffffffffffffffffffffffffff1614151561079857600080fd5b600073ffffffffffffffffffffffffffffffffffffffff168173ffffffffffffffffffffffffffffffffffffffff16141515156107d457600080fd5b806000806101000a81548173ffffffffffffffffffffffffffffffffffffffff021916908373ffffffffffffffffffffffffffffffffffffffff16021790555050565b6000809054906101000a900473ffffffffffffffffffffffffffffffffffffffff1673ffffffffffffffffffffffffffffffffffffffff163373ffffffffffffffffffffffffffffffffffffffff1614151561087257600080fd5b6000600281111561087f57fe5b600360009054906101000a900460ff16600281111561089a57fe5b1415156108a657600080fd5b6108ef600160008373ffffffffffffffffffffffffffffffffffffffff1673ffffffffffffffffffffffffffffffffffffffff1681526020019081526020016000205434610b43565b600160008373ffffffffffffffffffffffffffffffffffffffff1673ffffffffffffffffffffffffffffffffffffffff1681526020019081526020016000208190555050565b6000806001600281111561094557fe5b600360009054906101000a900460ff16600281111561096057fe5b14151561096c57600080fd5b6000600260008573ffffffffffffffffffffffffffffffffffffffff1673ffffffffffffffffffffffffffffffffffffffff1681526020019081526020016000205411156109bd5760009150610b22565b600160008473ffffffffffffffffffffffffffffffffffffffff1673ffffffffffffffffffffffffffffffffffffffff1681526020019081526020016000205490506000600160008573ffffffffffffffffffffffffffffffffffffffff1673ffffffffffffffffffffffffffffffffffffffff1681526020019081526020016000208190555080600260008573ffffffffffffffffffffffffffffffffffffffff1673ffffffffffffffffffffffffffffffffffffffff168152602001908152602001600020819055508273ffffffffffffffffffffffffffffffffffffffff166108fc829081150290604051600060405180830381858888f19350505050158015610ace573d6000803e3d6000fd5b508273ffffffffffffffffffffffffffffffffffffffff167fd7dee2702d63ad89917b6a4da9981c90c4d24f8c2bdfd64c604ecae57d8d0651826040518082815260200191505060405180910390a2600191505b50919050565b6000808284811515610b3657fe5b0490508091505092915050565b6000808284019050838110151515610b5757fe5b80915050929150505600a165627a7a72305820fb2ee2f188edffc92c222476e5e511d3526807cfd4770950b7c1cdd552b3bc180029",
  "source": "pragma solidity ^0.4.18;\n\nimport '../math/SafeMath.sol';\nimport '../ownership/Ownable.sol';\n\n/**\n * @title RefundVault\n * @dev This contract is used for storing funds while a crowdsale\n * is in progress. Supports refunding the money if crowdsale fails,\n * and forwarding it if crowdsale is successful.\n */\ncontract RefundVault is Ownable, SafeMath{\n\n  enum State { Active, Refunding, Closed }\n\n  mapping (address => uint256) public deposited;\n  mapping (address => uint256) public refunded;\n  State public state;\n\n  address[] public reserveWallet;\n\n  event Closed();\n  event RefundsEnabled();\n  event Refunded(address indexed beneficiary, uint256 weiAmount);\n\n  /**\n   * @dev This constructor sets the addresses of\n   * 10 reserve wallets.\n   * and forwarding it if crowdsale is successful.\n   * @param _reserveWallet address[5] The addresses of reserve wallet.\n   */\n  function RefundVault(address[] _reserveWallet) {\n    state = State.Active;\n    reserveWallet = _reserveWallet;\n  }\n\n  /**\n   * @dev This function is called when user buy tokens. Only RefundVault\n   * contract stores the Ether user sent which forwarded from crowdsale\n   * contract.\n   * @param investor address The address who buy the token from crowdsale.\n   */\n  function deposit(address investor) onlyOwner payable {\n    require(state == State.Active);\n    deposited[investor] = add(deposited[investor], msg.value);\n  }\n\n  event Transferred(address _to, uint _value);\n\n  /**\n   * @dev This function is called when crowdsale is successfully finalized.\n   */\n  function close() onlyOwner {\n    require(state == State.Active);\n    state = State.Closed;\n\n    uint256 balance = this.balance;\n\n    uint256 reserveAmountForEach = div(balance, reserveWallet.length);\n\n    for(uint8 i = 0; i < reserveWallet.length; i++){\n      reserveWallet[i].transfer(reserveAmountForEach);\n      Transferred(reserveWallet[i], reserveAmountForEach);\n    }\n\n    Closed();\n  }\n\n  /**\n   * @dev This function is called when crowdsale is unsuccessfully finalized\n   * and refund is required.\n   */\n  function enableRefunds() onlyOwner {\n    require(state == State.Active);\n    state = State.Refunding;\n    RefundsEnabled();\n  }\n\n  /**\n   * @dev This function allows for user to refund Ether.\n   */\n  function refund(address investor) returns (bool) {\n    require(state == State.Refunding);\n\n    if (refunded[investor] > 0) {\n      return false;\n    }\n\n    uint256 depositedValue = deposited[investor];\n    deposited[investor] = 0;\n    refunded[investor] = depositedValue;\n    investor.transfer(depositedValue);\n    Refunded(investor, depositedValue);\n\n    return true;\n  }\n\n}\n",
  "sourcePath": "/home/kysee/prj/mdx/contracts/vault/RefundVault.sol",
  "compiler": {
    "name": "solc",
    "version": "0.4.23+commit.124ca40d.Emscripten.clang"
  },
  "schemaVersion": "2.0.0",
  "updatedAt": "2018-04-23T08:46:10.405Z"
}