{
  "contractName": "TeamLocker",
  "abi": [
    {
      "constant": true,
      "inputs": [],
      "name": "genTime",
      "outputs": [
        {
          "name": "",
          "type": "uint256"
        }
      ],
      "payable": false,
      "stateMutability": "view",
      "type": "function"
    },
    {
      "constant": true,
      "inputs": [],
      "name": "collectedTokens",
      "outputs": [
        {
          "name": "",
          "type": "uint256"
        }
      ],
      "payable": false,
      "stateMutability": "view",
      "type": "function"
    },
    {
      "constant": true,
      "inputs": [],
      "name": "owner",
      "outputs": [
        {
          "name": "",
          "type": "address"
        }
      ],
      "payable": false,
      "stateMutability": "view",
      "type": "function"
    },
    {
      "constant": true,
      "inputs": [],
      "name": "crowdsale",
      "outputs": [
        {
          "name": "",
          "type": "address"
        }
      ],
      "payable": false,
      "stateMutability": "view",
      "type": "function"
    },
    {
      "constant": true,
      "inputs": [
        {
          "name": "",
          "type": "uint256"
        }
      ],
      "name": "beneficiaries",
      "outputs": [
        {
          "name": "",
          "type": "address"
        }
      ],
      "payable": false,
      "stateMutability": "view",
      "type": "function"
    },
    {
      "constant": false,
      "inputs": [
        {
          "name": "newOwner",
          "type": "address"
        }
      ],
      "name": "transferOwnership",
      "outputs": [],
      "payable": false,
      "stateMutability": "nonpayable",
      "type": "function"
    },
    {
      "constant": true,
      "inputs": [],
      "name": "token",
      "outputs": [
        {
          "name": "",
          "type": "address"
        }
      ],
      "payable": false,
      "stateMutability": "view",
      "type": "function"
    },
    {
      "inputs": [
        {
          "name": "_token",
          "type": "address"
        },
        {
          "name": "_crowdsale",
          "type": "address"
        },
        {
          "name": "_beneficiaries",
          "type": "address[]"
        }
      ],
      "payable": false,
      "stateMutability": "nonpayable",
      "type": "constructor"
    },
    {
      "constant": false,
      "inputs": [],
      "name": "release",
      "outputs": [],
      "payable": false,
      "stateMutability": "nonpayable",
      "type": "function"
    },
    {
      "constant": false,
      "inputs": [
        {
          "name": "_genTime",
          "type": "uint256"
        }
      ],
      "name": "setGenTime",
      "outputs": [],
      "payable": false,
      "stateMutability": "nonpayable",
      "type": "function"
    },
    {
      "constant": false,
      "inputs": [
        {
          "name": "newToken",
          "type": "address"
        }
      ],
      "name": "setToken",
      "outputs": [],
      "payable": false,
      "stateMutability": "nonpayable",
      "type": "function"
    }
  ],
  "bytecode": "0x608060405234801561001057600080fd5b50604051610d0f380380610d0f8339810180604052810190808051906020019092919080519060200190929190805182019291905050506000336000806101000a81548173ffffffffffffffffffffffffffffffffffffffff021916908373ffffffffffffffffffffffffffffffffffffffff16021790555060008473ffffffffffffffffffffffffffffffffffffffff16141515156100af57600080fd5b60008373ffffffffffffffffffffffffffffffffffffffff16141515156100d557600080fd5b600090505b815181101561012d57600082828151811015156100f357fe5b9060200190602002015173ffffffffffffffffffffffffffffffffffffffff161415151561012057600080fd5b80806001019150506100da565b83600160006101000a81548173ffffffffffffffffffffffffffffffffffffffff021916908373ffffffffffffffffffffffffffffffffffffffff16021790555082600260006101000a81548173ffffffffffffffffffffffffffffffffffffffff021916908373ffffffffffffffffffffffffffffffffffffffff16021790555081600390805190602001906101c59291906101d6565b5042600581905550505050506102a3565b82805482825590600052602060002090810192821561024f579160200282015b8281111561024e5782518260006101000a81548173ffffffffffffffffffffffffffffffffffffffff021916908373ffffffffffffffffffffffffffffffffffffffff160217905550916020019190600101906101f6565b5b50905061025c9190610260565b5090565b6102a091905b8082111561029c57600081816101000a81549073ffffffffffffffffffffffffffffffffffffffff021916905550600101610266565b5090565b90565b610a5d806102b26000396000f3006080604052600436106100a4576000357c0100000000000000000000000000000000000000000000000000000000900463ffffffff168063144fa6d7146100a95780631c3c050c146100ec578063787e91371461011757806386d1a69f146101425780638da5cb5b146101595780639c1e03a0146101b0578063ccd8ad0c14610207578063efeb5e5814610234578063f2fde38b146102a1578063fc0c546a146102e4575b600080fd5b3480156100b557600080fd5b506100ea600480360381019080803573ffffffffffffffffffffffffffffffffffffffff16906020019092919050505061033b565b005b3480156100f857600080fd5b50610101610447565b6040518082815260200191505060405180910390f35b34801561012357600080fd5b5061012c61044d565b6040518082815260200191505060405180910390f35b34801561014e57600080fd5b50610157610453565b005b34801561016557600080fd5b5061016e6106c4565b604051808273ffffffffffffffffffffffffffffffffffffffff1673ffffffffffffffffffffffffffffffffffffffff16815260200191505060405180910390f35b3480156101bc57600080fd5b506101c56106e9565b604051808273ffffffffffffffffffffffffffffffffffffffff1673ffffffffffffffffffffffffffffffffffffffff16815260200191505060405180910390f35b34801561021357600080fd5b506102326004803603810190808035906020019092919050505061070f565b005b34801561024057600080fd5b5061025f60048036038101908080359060200190929190505050610783565b604051808273ffffffffffffffffffffffffffffffffffffffff1673ffffffffffffffffffffffffffffffffffffffff16815260200191505060405180910390f35b3480156102ad57600080fd5b506102e2600480360381019080803573ffffffffffffffffffffffffffffffffffffffff1690602001909291905050506107c1565b005b3480156102f057600080fd5b506102f961089b565b604051808273ffffffffffffffffffffffffffffffffffffffff1673ffffffffffffffffffffffffffffffffffffffff16815260200191505060405180910390f35b60008060008373ffffffffffffffffffffffffffffffffffffffff161415151561036457600080fd5b600090505b6003805490508110156103f55760038181548110151561038557fe5b9060005260206000200160009054906101000a900473ffffffffffffffffffffffffffffffffffffffff1673ffffffffffffffffffffffffffffffffffffffff163373ffffffffffffffffffffffffffffffffffffffff1614156103e857600191505b8080600101915050610369565b81151561040157600080fd5b82600160006101000a81548173ffffffffffffffffffffffffffffffffffffffff021916908373ffffffffffffffffffffffffffffffffffffffff160217905550505050565b60055481565b60045481565b600080600080600080600080600080600160009054906101000a900473ffffffffffffffffffffffffffffffffffffffff1673ffffffffffffffffffffffffffffffffffffffff166370a08231306040518263ffffffff167c0100000000000000000000000000000000000000000000000000000000028152600401808273ffffffffffffffffffffffffffffffffffffffff1673ffffffffffffffffffffffffffffffffffffffff168152602001915050602060405180830381600087803b15801561051f57600080fd5b505af1158015610533573d6000803e3d6000fd5b505050506040513d602081101561054957600080fd5b810190808051906020019092919050505099506105688a6004546108c1565b9850600554975060008811151561057e57600080fd5b61058b8862f142806108c1565b965061059b886301e133806108c1565b95506014945086421015156105af57603294505b85421015156105bd57606494505b6105d16105ca8a876108df565b6064610912565b93506105df8460045461092d565b92506000831115156105f057600080fd5b6105fc600454846108c1565b60048190555061061183600380549050610912565b9150600090505b6003805490508110156106b8576106ab60038281548110151561063757fe5b9060005260206000200160009054906101000a900473ffffffffffffffffffffffffffffffffffffffff1683600160009054906101000a900473ffffffffffffffffffffffffffffffffffffffff1673ffffffffffffffffffffffffffffffffffffffff166109469092919063ffffffff16565b8080600101915050610618565b50505050505050505050565b6000809054906101000a900473ffffffffffffffffffffffffffffffffffffffff1681565b600260009054906101000a900473ffffffffffffffffffffffffffffffffffffffff1681565b6000809054906101000a900473ffffffffffffffffffffffffffffffffffffffff1673ffffffffffffffffffffffffffffffffffffffff163373ffffffffffffffffffffffffffffffffffffffff1614151561076a57600080fd5b60008111151561077957600080fd5b8060058190555050565b60038181548110151561079257fe5b906000526020600020016000915054906101000a900473ffffffffffffffffffffffffffffffffffffffff1681565b6000809054906101000a900473ffffffffffffffffffffffffffffffffffffffff1673ffffffffffffffffffffffffffffffffffffffff163373ffffffffffffffffffffffffffffffffffffffff1614151561081c57600080fd5b600073ffffffffffffffffffffffffffffffffffffffff168173ffffffffffffffffffffffffffffffffffffffff161415151561085857600080fd5b806000806101000a81548173ffffffffffffffffffffffffffffffffffffffff021916908373ffffffffffffffffffffffffffffffffffffffff16021790555050565b600160009054906101000a900473ffffffffffffffffffffffffffffffffffffffff1681565b60008082840190508381101515156108d557fe5b8091505092915050565b6000808284029050600084148061090057508284828115156108fd57fe5b04145b151561090857fe5b8091505092915050565b600080828481151561092057fe5b0490508091505092915050565b600082821115151561093b57fe5b818303905092915050565b8273ffffffffffffffffffffffffffffffffffffffff1663a9059cbb83836040518363ffffffff167c0100000000000000000000000000000000000000000000000000000000028152600401808373ffffffffffffffffffffffffffffffffffffffff1673ffffffffffffffffffffffffffffffffffffffff16815260200182815260200192505050602060405180830381600087803b1580156109e957600080fd5b505af11580156109fd573d6000803e3d6000fd5b505050506040513d6020811015610a1357600080fd5b81019080805190602001909291905050501515610a2c57fe5b5050505600a165627a7a7230582032930fd5b0e1d94965fadd4ed2b68e1a285529c3982c09d5628ae16f583b5ff20029",
  "source": "pragma solidity ^0.4.18;\n\nimport \"./ownership/Ownable.sol\";\nimport \"./token/ERC20Basic.sol\";\nimport \"./token/SafeERC20.sol\";\nimport \"./math/SafeMath.sol\";\nimport './MDXCrowdSale.sol';\n\n/**\n * @title TokenTimelock\n * @dev TokenTimelock is a token holder contract that will allow a\n * beneficiary to extract the tokens after a given release time\n */\ncontract TeamLocker is SafeMath, Ownable {\n    using SafeERC20 for ERC20Basic;\n\n    ERC20Basic public token;\n\n    MDXCrowdSale public crowdsale;\n\n    address[] public beneficiaries;\n\n    uint256 public collectedTokens;\n\n    uint256 public genTime;\n    \n    function TeamLocker(address _token, address _crowdsale, address[] _beneficiaries) {\n\n        require(_token != 0x00);\n        require(_crowdsale != 0x00);\n\n        for (uint i = 0; i < _beneficiaries.length; i++) {\n            require(_beneficiaries[i] != 0x00);\n        }\n\n        token = ERC20Basic(_token);\n        crowdsale = MDXCrowdSale(_crowdsale);\n        beneficiaries = _beneficiaries;\n\n        genTime = now;\n    }\n\n    /**\n     * @notice Transfers tokens held by timelock to beneficiary.\n     */\n    function release() public {\n\n        uint256 balance = token.balanceOf(address(this));\n        uint256 total = add(balance, collectedTokens);\n\n        uint256 finalizedTime = genTime;//crowdsale.finalizedTime();\n        require(finalizedTime > 0);\n\n        uint256 lockTime1 = add(finalizedTime, 183 days); // 6 months\n        uint256 lockTime2 = add(finalizedTime, 1 years); // 1 year\n\n        uint256 currentRatio = 20;\n\n        if (now >= lockTime1) {\n            currentRatio = 50;\n        }\n\n        if (now >= lockTime2) {\n            currentRatio = 100;\n        }\n\n        uint256 releasedAmount = div(mul(total, currentRatio), 100);\n        uint256 grantAmount = sub(releasedAmount, collectedTokens);\n        require(grantAmount > 0);\n        collectedTokens = add(collectedTokens, grantAmount);\n        uint256 grantAmountForEach = div(grantAmount, beneficiaries.length);\n\n        for (uint i = 0; i < beneficiaries.length; i++) {\n            token.safeTransfer(beneficiaries[i], grantAmountForEach);\n        }\n    }\n\n    function setGenTime(uint256 _genTime) public onlyOwner {\n        require(_genTime > 0);\n        genTime = _genTime;\n    }\n\n    function setToken(address newToken) public {\n        require(newToken != 0x00);\n\n        bool isBeneficiary;\n\n        for (uint i = 0; i < beneficiaries.length; i++) {\n            if (msg.sender == beneficiaries[i]) {\n                isBeneficiary = true;\n            }\n        }\n        require(isBeneficiary);\n\n        token = ERC20Basic(newToken);\n    }\n\n}\n",
  "sourcePath": "/home/kysee/prj/mdx/contracts/TeamLocker.sol",
  "compiler": {
    "name": "solc",
    "version": "0.4.23+commit.124ca40d.Emscripten.clang"
  },
  "schemaVersion": "2.0.0",
  "updatedAt": "2018-04-23T08:46:10.331Z"
}