{
  "contractName": "TeamLockerForDemoInMainnet",
  "abi": [
    {
      "constant": true,
      "inputs": [],
      "name": "collectedTokens",
      "outputs": [
        {
          "name": "",
          "type": "uint256"
        }
      ],
      "payable": false,
      "stateMutability": "view",
      "type": "function"
    },
    {
      "constant": true,
      "inputs": [],
      "name": "crowdsale",
      "outputs": [
        {
          "name": "",
          "type": "address"
        }
      ],
      "payable": false,
      "stateMutability": "view",
      "type": "function"
    },
    {
      "constant": true,
      "inputs": [
        {
          "name": "",
          "type": "uint256"
        }
      ],
      "name": "beneficiaries",
      "outputs": [
        {
          "name": "",
          "type": "address"
        }
      ],
      "payable": false,
      "stateMutability": "view",
      "type": "function"
    },
    {
      "constant": true,
      "inputs": [],
      "name": "token",
      "outputs": [
        {
          "name": "",
          "type": "address"
        }
      ],
      "payable": false,
      "stateMutability": "view",
      "type": "function"
    },
    {
      "inputs": [
        {
          "name": "_token",
          "type": "address"
        },
        {
          "name": "_crowdsale",
          "type": "address"
        },
        {
          "name": "_beneficiaries",
          "type": "address[]"
        }
      ],
      "payable": false,
      "stateMutability": "nonpayable",
      "type": "constructor"
    },
    {
      "constant": false,
      "inputs": [],
      "name": "release",
      "outputs": [],
      "payable": false,
      "stateMutability": "nonpayable",
      "type": "function"
    },
    {
      "constant": false,
      "inputs": [
        {
          "name": "newToken",
          "type": "address"
        }
      ],
      "name": "setToken",
      "outputs": [],
      "payable": false,
      "stateMutability": "nonpayable",
      "type": "function"
    }
  ],
  "bytecode": "0x608060405234801561001057600080fd5b50604051610ae2380380610ae28339810180604052810190808051906020019092919080519060200190929190805182019291905050506000808473ffffffffffffffffffffffffffffffffffffffff161415151561006e57600080fd5b60008373ffffffffffffffffffffffffffffffffffffffff161415151561009457600080fd5b600090505b81518110156100ec57600082828151811015156100b257fe5b9060200190602002015173ffffffffffffffffffffffffffffffffffffffff16141515156100df57600080fd5b8080600101915050610099565b836000806101000a81548173ffffffffffffffffffffffffffffffffffffffff021916908373ffffffffffffffffffffffffffffffffffffffff16021790555082600160006101000a81548173ffffffffffffffffffffffffffffffffffffffff021916908373ffffffffffffffffffffffffffffffffffffffff160217905550816002908051906020019061018392919061018d565b505050505061025a565b828054828255906000526020600020908101928215610206579160200282015b828111156102055782518260006101000a81548173ffffffffffffffffffffffffffffffffffffffff021916908373ffffffffffffffffffffffffffffffffffffffff160217905550916020019190600101906101ad565b5b5090506102139190610217565b5090565b61025791905b8082111561025357600081816101000a81549073ffffffffffffffffffffffffffffffffffffffff02191690555060010161021d565b5090565b90565b610879806102696000396000f300608060405260043610610078576000357c0100000000000000000000000000000000000000000000000000000000900463ffffffff168063144fa6d71461007d578063787e9137146100c057806386d1a69f146100eb5780639c1e03a014610102578063efeb5e5814610159578063fc0c546a146101c6575b600080fd5b34801561008957600080fd5b506100be600480360381019080803573ffffffffffffffffffffffffffffffffffffffff16906020019092919050505061021d565b005b3480156100cc57600080fd5b506100d5610328565b6040518082815260200191505060405180910390f35b3480156100f757600080fd5b5061010061032e565b005b34801561010e57600080fd5b50610117610654565b604051808273ffffffffffffffffffffffffffffffffffffffff1673ffffffffffffffffffffffffffffffffffffffff16815260200191505060405180910390f35b34801561016557600080fd5b506101846004803603810190808035906020019092919050505061067a565b604051808273ffffffffffffffffffffffffffffffffffffffff1673ffffffffffffffffffffffffffffffffffffffff16815260200191505060405180910390f35b3480156101d257600080fd5b506101db6106b8565b604051808273ffffffffffffffffffffffffffffffffffffffff1673ffffffffffffffffffffffffffffffffffffffff16815260200191505060405180910390f35b60008060008373ffffffffffffffffffffffffffffffffffffffff161415151561024657600080fd5b600090505b6002805490508110156102d75760028181548110151561026757fe5b9060005260206000200160009054906101000a900473ffffffffffffffffffffffffffffffffffffffff1673ffffffffffffffffffffffffffffffffffffffff163373ffffffffffffffffffffffffffffffffffffffff1614156102ca57600191505b808060010191505061024b565b8115156102e357600080fd5b826000806101000a81548173ffffffffffffffffffffffffffffffffffffffff021916908373ffffffffffffffffffffffffffffffffffffffff160217905550505050565b60035481565b6000806000806000806000806000806000809054906101000a900473ffffffffffffffffffffffffffffffffffffffff1673ffffffffffffffffffffffffffffffffffffffff166370a08231306040518263ffffffff167c0100000000000000000000000000000000000000000000000000000000028152600401808273ffffffffffffffffffffffffffffffffffffffff1673ffffffffffffffffffffffffffffffffffffffff168152602001915050602060405180830381600087803b1580156103f957600080fd5b505af115801561040d573d6000803e3d6000fd5b505050506040513d602081101561042357600080fd5b810190808051906020019092919050505099506104428a6003546106dd565b9850600160009054906101000a900473ffffffffffffffffffffffffffffffffffffffff1673ffffffffffffffffffffffffffffffffffffffff1663fe67a1896040518163ffffffff167c0100000000000000000000000000000000000000000000000000000000028152600401602060405180830381600087803b1580156104ca57600080fd5b505af11580156104de573d6000803e3d6000fd5b505050506040513d60208110156104f457600080fd5b8101908080519060200190929190505050975060008811151561051657600080fd5b610522886107086106dd565b965061053088610e106106dd565b955060149450864210151561054457603294505b854210151561055257606494505b61056661055f8a876106fb565b606461072e565b935061057484600354610749565b925060008311151561058557600080fd5b610591600354846106dd565b6003819055506105a283600361072e565b9150600090505b6002805490508110156106485761063b6002828154811015156105c857fe5b9060005260206000200160009054906101000a900473ffffffffffffffffffffffffffffffffffffffff16836000809054906101000a900473ffffffffffffffffffffffffffffffffffffffff1673ffffffffffffffffffffffffffffffffffffffff166107629092919063ffffffff16565b80806001019150506105a9565b50505050505050505050565b600160009054906101000a900473ffffffffffffffffffffffffffffffffffffffff1681565b60028181548110151561068957fe5b906000526020600020016000915054906101000a900473ffffffffffffffffffffffffffffffffffffffff1681565b6000809054906101000a900473ffffffffffffffffffffffffffffffffffffffff1681565b60008082840190508381101515156106f157fe5b8091505092915050565b6000808284029050600084148061071c575082848281151561071957fe5b04145b151561072457fe5b8091505092915050565b600080828481151561073c57fe5b0490508091505092915050565b600082821115151561075757fe5b818303905092915050565b8273ffffffffffffffffffffffffffffffffffffffff1663a9059cbb83836040518363ffffffff167c0100000000000000000000000000000000000000000000000000000000028152600401808373ffffffffffffffffffffffffffffffffffffffff1673ffffffffffffffffffffffffffffffffffffffff16815260200182815260200192505050602060405180830381600087803b15801561080557600080fd5b505af1158015610819573d6000803e3d6000fd5b505050506040513d602081101561082f57600080fd5b8101908080519060200190929190505050151561084857fe5b5050505600a165627a7a72305820c3014ad97f86efbac7bb86987e10f167c23700ecf2f45d1550d4a2b9199c5a910029",
  "source": "pragma solidity ^0.4.18;\n\nimport \"./token/ERC20Basic.sol\";\nimport \"./token/SafeERC20.sol\";\nimport \"./math/SafeMath.sol\";\nimport './MDXCrowdSale.sol';\n\n/**\n * @title TokenTimelock\n * @dev TokenTimelock is a token holder contract that will allow a\n * beneficiary to extract the tokens after a given release time\n */\ncontract TeamLockerForDemoInMainnet is SafeMath{\n  using SafeERC20 for ERC20Basic;\n\n  ERC20Basic public token;\n\n  MDXCrowdSale public crowdsale;\n\n  address[] public beneficiaries;\n\n  uint256 public collectedTokens;\n\n  function TeamLockerForDemoInMainnet(address _token, address _crowdsale, address[] _beneficiaries) {\n\n    require(_token != 0x00);\n    require(_crowdsale != 0x00);\n\n    for (uint i = 0; i < _beneficiaries.length; i++) {\n      require(_beneficiaries[i] != 0x00);\n    }\n\n    token = ERC20Basic(_token);\n    crowdsale = MDXCrowdSale(_crowdsale);\n    beneficiaries = _beneficiaries;\n  }\n\n  /**\n   * @notice Transfers tokens held by timelock to beneficiary.\n   */\n  function release() public {\n\n    uint256 balance = token.balanceOf(address(this));\n    uint256 total = add(balance, collectedTokens);\n\n    uint256 finalizedTime = crowdsale.finalizedTime();\n    require(finalizedTime > 0);\n\n    uint256 lockTime1 = add(finalizedTime, 30 minutes); // 6 months\n    uint256 lockTime2 = add(finalizedTime, 60 minutes); // 1 year\n\n    uint256 currentRatio = 20;\n\n    if (now >= lockTime1) {\n      currentRatio = 50;\n    }\n\n    if (now >= lockTime2) {\n      currentRatio = 100;\n    }\n\n    uint256 releasedAmount = div(mul(total, currentRatio), 100);\n    uint256 grantAmount = sub(releasedAmount, collectedTokens);\n    require(grantAmount > 0);\n    collectedTokens = add(collectedTokens, grantAmount);\n    uint256 grantAmountForEach = div(grantAmount, 3);\n\n    for (uint i = 0; i < beneficiaries.length; i++) {\n        token.safeTransfer(beneficiaries[i], grantAmountForEach);\n    }\n  }\n\n  function setToken(address newToken) public {\n    require(newToken != 0x00);\n\n    bool isBeneficiary;\n\n    for (uint i = 0; i < beneficiaries.length; i++) {\n      if (msg.sender == beneficiaries[i]) {\n        isBeneficiary = true;\n      }\n    }\n    require(isBeneficiary);\n\n    token = ERC20Basic(newToken);\n  }\n\n}\n",
  "sourcePath": "/home/kysee/prj/mdx/contracts/TeamLockerForDemoInMainnet.sol",
  "compiler": {
    "name": "solc",
    "version": "0.4.23+commit.124ca40d.Emscripten.clang"
  },
  "schemaVersion": "2.0.0",
  "updatedAt": "2018-04-23T07:52:02.597Z"
}